{
  "_format": "hh-sol-artifact-1",
  "contractName": "ProductManager",
  "sourceName": "contracts/ProductManager.sol",
  "abi": [
    {
      "anonymous": false,
      "inputs": [
        {
          "indexed": false,
          "internalType": "uint256",
          "name": "id",
          "type": "uint256"
        },
        {
          "indexed": false,
          "internalType": "string",
          "name": "name",
          "type": "string"
        },
        {
          "indexed": false,
          "internalType": "string",
          "name": "description",
          "type": "string"
        },
        {
          "indexed": false,
          "internalType": "uint256",
          "name": "price",
          "type": "uint256"
        },
        {
          "indexed": false,
          "internalType": "address",
          "name": "owner",
          "type": "address"
        }
      ],
      "name": "ProductCreated",
      "type": "event"
    },
    {
      "anonymous": false,
      "inputs": [
        {
          "indexed": false,
          "internalType": "uint256",
          "name": "id",
          "type": "uint256"
        }
      ],
      "name": "ProductDeleted",
      "type": "event"
    },
    {
      "anonymous": false,
      "inputs": [
        {
          "indexed": false,
          "internalType": "uint256",
          "name": "id",
          "type": "uint256"
        },
        {
          "indexed": false,
          "internalType": "string",
          "name": "name",
          "type": "string"
        },
        {
          "indexed": false,
          "internalType": "string",
          "name": "description",
          "type": "string"
        },
        {
          "indexed": false,
          "internalType": "uint256",
          "name": "price",
          "type": "uint256"
        },
        {
          "indexed": false,
          "internalType": "address",
          "name": "owner",
          "type": "address"
        }
      ],
      "name": "ProductUpdated",
      "type": "event"
    },
    {
      "inputs": [
        {
          "internalType": "string",
          "name": "_name",
          "type": "string"
        },
        {
          "internalType": "string",
          "name": "_description",
          "type": "string"
        },
        {
          "internalType": "uint256",
          "name": "_price",
          "type": "uint256"
        }
      ],
      "name": "createProduct",
      "outputs": [],
      "stateMutability": "nonpayable",
      "type": "function"
    },
    {
      "inputs": [
        {
          "internalType": "uint256",
          "name": "_id",
          "type": "uint256"
        }
      ],
      "name": "deleteProduct",
      "outputs": [],
      "stateMutability": "nonpayable",
      "type": "function"
    },
    {
      "inputs": [],
      "name": "getAllProducts",
      "outputs": [
        {
          "components": [
            {
              "internalType": "uint256",
              "name": "id",
              "type": "uint256"
            },
            {
              "internalType": "string",
              "name": "name",
              "type": "string"
            },
            {
              "internalType": "string",
              "name": "description",
              "type": "string"
            },
            {
              "internalType": "uint256",
              "name": "price",
              "type": "uint256"
            },
            {
              "internalType": "address",
              "name": "owner",
              "type": "address"
            }
          ],
          "internalType": "struct ProductManager.Product[]",
          "name": "",
          "type": "tuple[]"
        }
      ],
      "stateMutability": "view",
      "type": "function"
    },
    {
      "inputs": [
        {
          "internalType": "uint256",
          "name": "_id",
          "type": "uint256"
        }
      ],
      "name": "getProduct",
      "outputs": [
        {
          "components": [
            {
              "internalType": "uint256",
              "name": "id",
              "type": "uint256"
            },
            {
              "internalType": "string",
              "name": "name",
              "type": "string"
            },
            {
              "internalType": "string",
              "name": "description",
              "type": "string"
            },
            {
              "internalType": "uint256",
              "name": "price",
              "type": "uint256"
            },
            {
              "internalType": "address",
              "name": "owner",
              "type": "address"
            }
          ],
          "internalType": "struct ProductManager.Product",
          "name": "",
          "type": "tuple"
        }
      ],
      "stateMutability": "view",
      "type": "function"
    },
    {
      "inputs": [],
      "name": "productCount",
      "outputs": [
        {
          "internalType": "uint256",
          "name": "",
          "type": "uint256"
        }
      ],
      "stateMutability": "view",
      "type": "function"
    },
    {
      "inputs": [
        {
          "internalType": "uint256",
          "name": "",
          "type": "uint256"
        }
      ],
      "name": "products",
      "outputs": [
        {
          "internalType": "uint256",
          "name": "id",
          "type": "uint256"
        },
        {
          "internalType": "string",
          "name": "name",
          "type": "string"
        },
        {
          "internalType": "string",
          "name": "description",
          "type": "string"
        },
        {
          "internalType": "uint256",
          "name": "price",
          "type": "uint256"
        },
        {
          "internalType": "address",
          "name": "owner",
          "type": "address"
        }
      ],
      "stateMutability": "view",
      "type": "function"
    },
    {
      "inputs": [
        {
          "internalType": "uint256",
          "name": "_id",
          "type": "uint256"
        },
        {
          "internalType": "string",
          "name": "_name",
          "type": "string"
        },
        {
          "internalType": "string",
          "name": "_description",
          "type": "string"
        },
        {
          "internalType": "uint256",
          "name": "_price",
          "type": "uint256"
        }
      ],
      "name": "updateProduct",
      "outputs": [],
      "stateMutability": "nonpayable",
      "type": "function"
    }
  ],
  "bytecode": "0x608060405234801561001057600080fd5b50611050806100206000396000f3fe608060405234801561001057600080fd5b506004361061007d5760003560e01c8063a227379c1161005b578063a227379c146100d9578063b9db15b4146100ec578063e0f6ef871461010c578063ed90c7b71461012357600080fd5b806302ee3a52146100825780637acc0b20146100a0578063a1422209146100c4575b600080fd5b61008a610136565b6040516100979190610be5565b60405180910390f35b6100b36100ae366004610c47565b610349565b604051610097959493929190610c60565b6100d76100d2366004610d51565b610492565b005b6100d76100e7366004610dbe565b610621565b6100ff6100fa366004610c47565b6107f0565b6040516100979190610e33565b61011560015481565b604051908152602001610097565b6100d7610131366004610c47565b61098f565b6060600060015467ffffffffffffffff81111561015557610155610cae565b60405190808252806020026020018201604052801561018e57816020015b61017b610ab0565b8152602001906001900390816101735790505b50905060005b600154811015610343576000806101ac836001610e63565b81526020019081526020016000206040518060a0016040529081600082015481526020016001820180546101df90610e7c565b80601f016020809104026020016040519081016040528092919081815260200182805461020b90610e7c565b80156102585780601f1061022d57610100808354040283529160200191610258565b820191906000526020600020905b81548152906001019060200180831161023b57829003601f168201915b5050505050815260200160028201805461027190610e7c565b80601f016020809104026020016040519081016040528092919081815260200182805461029d90610e7c565b80156102ea5780601f106102bf576101008083540402835291602001916102ea565b820191906000526020600020905b8154815290600101906020018083116102cd57829003601f168201915b5050509183525050600382015460208201526004909101546001600160a01b0316604090910152825183908390811061032557610325610eb0565b6020026020010181905250808061033b90610ec6565b915050610194565b50919050565b6000602081905290815260409020805460018201805491929161036b90610e7c565b80601f016020809104026020016040519081016040528092919081815260200182805461039790610e7c565b80156103e45780601f106103b9576101008083540402835291602001916103e4565b820191906000526020600020905b8154815290600101906020018083116103c757829003601f168201915b5050505050908060020180546103f990610e7c565b80601f016020809104026020016040519081016040528092919081815260200182805461042590610e7c565b80156104725780601f1061044757610100808354040283529160200191610472565b820191906000526020600020905b81548152906001019060200180831161045557829003601f168201915b5050505060038301546004909301549192916001600160a01b0316905085565b60008351116104df5760405162461bcd60e51b81526020600482015260146024820152734e616d652063616e6e6f7420626520656d70747960601b60448201526064015b60405180910390fd5b6000811161052f5760405162461bcd60e51b815260206004820152601c60248201527f5072696365206d7573742062652067726561746572207468616e20300000000060448201526064016104d6565b6001805490600061053f83610ec6565b90915550506040805160a08101825260018054808352602080840188815284860188905260608501879052336080860152600092835290829052939020825181559251919291908201906105939082610f2e565b50604082015160028201906105a89082610f2e565b5060608201516003820155608090910151600490910180546001600160a01b0319166001600160a01b039092169190911790556001546040517f965ec429b52d166e7f39d678643fac1a6aba80af304381b7ec3f6326d5ebea5a91610614918690869086903390610c60565b60405180910390a1505050565b60008411801561063357506001548411155b61064f5760405162461bcd60e51b81526004016104d690610fee565b6000848152602081905260409020600401546001600160a01b031633146106c65760405162461bcd60e51b815260206004820152602560248201527f4f6e6c7920746865206f776e65722063616e20757064617465207468652070726044820152641bd91d58dd60da1b60648201526084016104d6565b600083511161070e5760405162461bcd60e51b81526020600482015260146024820152734e616d652063616e6e6f7420626520656d70747960601b60448201526064016104d6565b6000811161075e5760405162461bcd60e51b815260206004820152601c60248201527f5072696365206d7573742062652067726561746572207468616e20300000000060448201526064016104d6565b60008481526020819052604090206001016107798482610f2e565b5060008481526020819052604090206002016107958382610f2e565b5060008481526020819052604090819020600301829055517ff4499b8eb98061f1076d38e18b503b10057b3fbb084c0d4aa347ad75417de01a906107e29086908690869086903390610c60565b60405180910390a150505050565b6107f8610ab0565b60008211801561080a57506001548211155b6108265760405162461bcd60e51b81526004016104d690610fee565b60008281526020818152604091829020825160a0810190935280548352600181018054919284019161085790610e7c565b80601f016020809104026020016040519081016040528092919081815260200182805461088390610e7c565b80156108d05780601f106108a5576101008083540402835291602001916108d0565b820191906000526020600020905b8154815290600101906020018083116108b357829003601f168201915b505050505081526020016002820180546108e990610e7c565b80601f016020809104026020016040519081016040528092919081815260200182805461091590610e7c565b80156109625780601f1061093757610100808354040283529160200191610962565b820191906000526020600020905b81548152906001019060200180831161094557829003601f168201915b5050509183525050600382015460208201526004909101546001600160a01b031660409091015292915050565b6000811180156109a157506001548111155b6109bd5760405162461bcd60e51b81526004016104d690610fee565b6000818152602081905260409020600401546001600160a01b03163314610a345760405162461bcd60e51b815260206004820152602560248201527f4f6e6c7920746865206f776e65722063616e2064656c657465207468652070726044820152641bd91d58dd60da1b60648201526084016104d6565b600081815260208190526040812081815590610a536001830182610ae8565b610a61600283016000610ae8565b506000600382015560040180546001600160a01b03191690556040518181527fc341cf326465fe622f86c468249e8c0cb03ed23ba376a6a34863a1374ac7d7699060200160405180910390a150565b6040518060a001604052806000815260200160608152602001606081526020016000815260200160006001600160a01b031681525090565b508054610af490610e7c565b6000825580601f10610b04575050565b601f016020900490600052602060002090810190610b229190610b25565b50565b5b80821115610b3a5760008155600101610b26565b5090565b6000815180845260005b81811015610b6457602081850181015186830182015201610b48565b506000602082860101526020601f19601f83011685010191505092915050565b805182526000602082015160a06020850152610ba360a0850182610b3e565b905060408301518482036040860152610bbc8282610b3e565b606085810151908701526080948501516001600160a01b03169490950193909352509192915050565b6000602080830181845280855180835260408601915060408160051b870101925083870160005b82811015610c3a57603f19888603018452610c28858351610b84565b94509285019290850190600101610c0c565b5092979650505050505050565b600060208284031215610c5957600080fd5b5035919050565b85815260a060208201526000610c7960a0830187610b3e565b8281036040840152610c8b8187610b3e565b606084019590955250506001600160a01b03919091166080909101529392505050565b634e487b7160e01b600052604160045260246000fd5b600082601f830112610cd557600080fd5b813567ffffffffffffffff80821115610cf057610cf0610cae565b604051601f8301601f19908116603f01168101908282118183101715610d1857610d18610cae565b81604052838152866020858801011115610d3157600080fd5b836020870160208301376000602085830101528094505050505092915050565b600080600060608486031215610d6657600080fd5b833567ffffffffffffffff80821115610d7e57600080fd5b610d8a87838801610cc4565b94506020860135915080821115610da057600080fd5b50610dad86828701610cc4565b925050604084013590509250925092565b60008060008060808587031215610dd457600080fd5b84359350602085013567ffffffffffffffff80821115610df357600080fd5b610dff88838901610cc4565b94506040870135915080821115610e1557600080fd5b50610e2287828801610cc4565b949793965093946060013593505050565b602081526000610e466020830184610b84565b9392505050565b634e487b7160e01b600052601160045260246000fd5b80820180821115610e7657610e76610e4d565b92915050565b600181811c90821680610e9057607f821691505b60208210810361034357634e487b7160e01b600052602260045260246000fd5b634e487b7160e01b600052603260045260246000fd5b600060018201610ed857610ed8610e4d565b5060010190565b601f821115610f2957600081815260208120601f850160051c81016020861015610f065750805b601f850160051c820191505b81811015610f2557828155600101610f12565b5050505b505050565b815167ffffffffffffffff811115610f4857610f48610cae565b610f5c81610f568454610e7c565b84610edf565b602080601f831160018114610f915760008415610f795750858301515b600019600386901b1c1916600185901b178555610f25565b600085815260208120601f198616915b82811015610fc057888601518255948401946001909101908401610fa1565b5085821015610fde5787850151600019600388901b60f8161c191681555b5050505050600190811b01905550565b602080825260129082015271125b9d985b1a59081c1c9bd91d58dd08125160721b60408201526060019056fea2646970667358221220c647e8165f869aa05eb0c84648d413ccd9beb6bed0098f4ab3a829f6a05ef6c964736f6c63430008130033",
  "linkReferences": {},
  "deployedLinkReferences": {}
}